:020000040800F2
:10000000005000209D200008E9200008E920000899
:10001000E9200008E9200008E920000800000000AD
:10002000000000000000000000000000E9200008BF
:10003000E920000800000000E92000080104000891
:10004000E9200008E9200008E9200008E92000086C
:10005000E9200008E9200008E9200008E92000085C
:10006000E9200008E9200008E9200008E92000084C
:10007000E9200008E9200008E9200008E92000083C
:10008000E9200008E9200008E9200008E92000082C
:1000900011040008E9200008E9200008E920000810
:1000A000E9200008E9200008E920000821040008F0
:1000B000E9200008E9200008E9200008E9200008FC
:1000C000E9200008E9200008E9200008E9200008EC
:1000D000E9200008E9200008E9200008E9200008DC
:1000E000E9200008E9200008E920000800000000DD
:1000F0000000000000000000000000000000000000
:1001000000000000000000005FF808F110B5054C89
:10011000237833B9044B13B10448AFF300800123B3
:10012000237010BD2805002000000000206B00088F
:1001300008B5064B1BB106480649AFF300800648D8
:10014000036813B1054B03B1984708BD00000000D8
:10015000206B00082C050020240500200000000072
:1001600080B590B000AF78600023FB630023BB63D1
:100170007B681B6803F00103002B00F0B5806C4B1B
:100180006B4AD26942F08052DA61694BDB6903F055
:100190008053FB60FB68674B664A126842F48072CA
:1001A0001A6000F00BF9F86308E000F007F9024666
:1001B000FB6BD31A642B01D90323B4E05D4B1B689E
:1001C00003F48073002BF0D0594B1A6A7B685B688C
:1001D000534003F44073002B00F08680544B1B6A9D
:1001E00023F44073BB634FF480337B637B6B93FAE0
:1001F000A3F33B633B6BB3FA83F39B001A464E4B6E
:10020000134401221A604FF48033FB62FB6A93FAB5
:10021000A3F3BB62BB6AB3FA83F39B001A46464B57
:10022000134400221A60424BBA6B1A62BB6B03F094
:100230000203002B4FD000F0C1F8F8630AE000F091
:10024000BDF80246FB6BD21A41F288339A4201D9BB
:10025000032368E002237B627B6A93FAA3F33B6289
:100260003B6AB3FA83F3DBB243F04003DBB2DBB2A9
:100270005B09DBB2012B02D12D4B1B6816E0022378
:10028000FB61FB6993FAA3F3BB61BB69B3FA83F328
:10029000DBB243F04003DBB2DBB25B09DBB2022B23
:1002A00002D1234B1B6A01E0214B5B6A02227A6177
:1002B0007A6992FAA2F23A613A69B2FA82F2D2B259
:1002C00042F04002D2B2D2B202F01F02D34003F099
:1002D0000103002BB3D0164B154A126A22F4407169
:1002E0007A6852680A431A627B681B6803F002034B
:1002F000002B08D00E4B0E4A526822F440417A6817
:1003000092680A435A607B681B6803F01003002B55
:1003100008D0074B064A526822F480017A68D268F6
:100320000A435A60002318464037BD4680BD00BFCF
:1003300000100240007000400004424280B500AF4F
:10034000084B084A126842F010021A60032000F0BD
:1003500037F9002000F008F804F086FE0023184664
:1003600080BD00BF0020024080B582B000AF786041
:1003700001F038FD0246094BA3FB02139B09184606
:1003800000F052F94FF0FF307968002200F022F9B6
:10039000002318460837BD4680BD00BFD34D62100C
:1003A00080B400AF044B1B685A1C034B1A60BD4657
:1003B0005DF8047B704700BF4405002080B400AFA7
:1003C000034B1B681846BD465DF8047B704700BFB1
:1003D0004405002080B584B000AF78600023FB6046
:1003E000FFF7ECFFF86000BFFFF7E8FF0246FB688D
:1003F000D21A7B689A42F7D31037BD4680BD00BF42
:1004000080B500AFFFF7CCFF00F036F980BD00BF2C
:1004100080B500AF014801F065FF80BDB80700203E
:1004200080B500AF014804F033FF80BD7C0500209B
:1004300080B485B000AF78607B6803F00703FB6091
:100440000C4BDB68BB60BA684FF6FF031340BB6020
:10045000FB681A02BB68134343F0BF6343F40033E5
:10046000BB60044BBA68DA601437BD465DF8047BA4
:10047000704700BF00ED00E080B400AF044BDB68C4
:1004800003F4E0631B0A1846BD465DF8047B704721
:1004900000ED00E080B483B000AF0346FB71084B71
:1004A00097F907205209F97901F01F01012000FA9C
:1004B00001F143F822100C37BD465DF8047B70470C
:1004C00000E100E080B483B000AF03463960FB7107
:1004D00097F90730002B0BDA0D49FB7903F00F0376
:1004E000043B3A68D2B21201D2B20B441A7609E048
:1004F000084997F907303A68D2B21201D2B20B44D8
:1005000083F800230C37BD465DF8047B704700BFBD
:1005100000ED00E000E100E080B489B000AFF860D9
:10052000B9607A60FB6803F00703FB61FB69C3F104
:100530000703042B28BF0423BB61FB690433062B8C
:1005400002D9FB69033B00E000237B61BB69012208
:1005500002FA03F35A1EBB681A407B699A407B6912
:10056000012101FA03F3591E7B680B40134318461F
:100570002437BD465DF8047B704700BF80B582B06C
:1005800000AF78607B68013BB3F1807F01D301232A
:100590000FE00A4B7A68013A5A604FF0FF300F21A2
:1005A000FFF790FF054B00229A60044B07221A6068
:1005B000002318460837BD4680BD00BF10E000E0AC
:1005C00080B582B000AF78607868FFF731FF0837F8
:1005D000BD4680BD80B586B000AF0346B9607A6085
:1005E000FB7300237B61FFF747FF78617869B96887
:1005F0007A68FFF791FF034697F90F2010461946D6
:10060000FFF760FF1837BD4680BD00BF80B582B0E0
:1006100000AF0346FB7197F907301846FFF73AFF22
:100620000837BD4680BD00BF80B582B000AF78609E
:100630007868FFF7A3FF034618460837BD4680BD1C
:1006400080B483B000AF78607B68042B06D1094B7F
:10065000084A126842F004021A6005E0054B054A98
:10066000126822F004021A600C37BD465DF8047B64
:10067000704700BF10E000E080B500AF00F002F866
:1006800080BD00BF80B400AFBD465DF8047B7047FD
:1006900080B400AF154B154A126842F001021A608F
:1006A000124A124B5968124B0B4053600F4A0F4BC2
:1006B0001B6823F0847323F4803313600B4B0B4AC5
:1006C000126822F480221A60084B084A526822F409
:1006D000FE025A60054B4FF41F029A60054B4FF023
:1006E00000629A60BD465DF8047B704700100240CE
:1006F0000000FFF800ED00E080B5F0B000AF3B1D5A
:1007000018600023C7F8BC313B1D1B681B6803F051
:100710000103002B00F0E381B04B5B6803F00C0396
:10072000042B0BD0AD4B5B6803F00C03082B5ED1A0
:10073000AA4B5B6803F48033002B58D04FF400338E
:10074000C7F8B831D7F8B83193FAA3F3C7F8B43182
:10075000D7F8B431B3FA83F3DBB243F02003DBB252
:10076000DBB25B09DBB2012B02D19C4B1B681BE0A7
:100770004FF40033C7F8B031D7F8B03193FAA3F390
:10078000C7F8AC31D7F8AC31B3FA83F3DBB243F03E
:100790002003DBB2DBB25B09DBB2022B02D18F4B51
:1007A0001B6A01E08D4B5B6A4FF40032C7F8A82149
:1007B000D7F8A82192FAA2F2C7F8A421D7F8A42169
:1007C000B2FA82F2D2B242F02002D2B2D2B202F037
:1007D0001F02D34003F00103002B07D03B1D1B6811
:1007E0005B68002B02D1012300F08BBF77E17B4BCC
:1007F0007A4A126822F480321A60784B774A12687B
:1008000022F480221A60FFF7D9FDC7F8BC010CE082
:10081000FFF7D4FD0246D7F8BC31D21A41F2883333
:100820009A4202D9032300F06CBF4FF40033C7F89B
:10083000A031D7F8A03193FAA3F3C7F89C31D7F8C9
:100840009C31B3FA83F3DBB243F02003DBB2DBB2BB
:100850005B09DBB2012B02D1604B1B681BE04FF43C
:100860000033C7F89831D7F8983193FAA3F3C7F853
:100870009431D7F89431B3FA83F3DBB243F0200319
:10088000DBB2DBB25B09DBB2022B02D1534B1B6A3A
:1008900001E0524B5B6A4FF40032C7F89021D7F861
:1008A000902192FAA2F2C7F88C21D7F88C21B2FAE3
:1008B00082F2D2B242F02002D2B2D2B202F01F02D1
:1008C000D34003F00103002BA2D13B1D1B685B68E2
:1008D000B3F5803F06D1414B404A126842F4803262
:1008E0001A6030E03B1D1B685B68002B0CD13B4B52
:1008F0003A4A126822F480321A60384B374A12683A
:1009000022F480221A601EE03B1D1B685B68B3F571
:10091000A02F0CD1314B314A126842F480221A6068
:100920002E4B2E4A126842F480321A600BE02B4B99
:100930002A4A126822F480321A60284B274A126829
:1009400022F480221A603B1D1B685B68002B64D078
:10095000FFF734FDC7F8BC010CE0FFF72FFD02469E
:10096000D7F8BC31D21A41F288339A4202D9032314
:1009700000F0C7BE4FF40033C7F88831D7F888318C
:1009800093FAA3F3C7F88431D7F88431B3FA83F329
:10099000DBB243F02003DBB2DBB25B09DBB2012B3D
:1009A00002D10E4B1B681DE04FF40033C7F88031B5
:1009B000D7F8803193FAA3F3C7F87C31D7F87C31AC
:1009C000B3FA83F3DBB243F02003DBB2DBB25B09A3
:1009D000DBB2022B04D1014B1B6A03E00010024082
:1009E000B14B5B6A4FF40032C7F87821D7F8782111
:1009F00092FAA2F2C7F87421D7F87421B2FA82F2FF
:100A0000D2B242F02002D2B2D2B202F01F02D340E0
:100A100003F00103002BA0D061E0FFF7CFFCC7F883
:100A2000BC010CE0FFF7CAFC0246D7F8BC31D21A71
:100A300041F288339A4202D9032300F062BE4FF498
:100A40000033C7F87031D7F8703193FAA3F3C7F8C1
:100A50006C31D7F86C31B3FA83F3DBB243F0200387
:100A6000DBB2DBB25B09DBB2012B02D18E4B1B6820
:100A70001BE04FF40033C7F86831D7F8683193FAB8
:100A8000A3F3C7F86431D7F86431B3FA83F3DBB268
:100A900043F02003DBB2DBB25B09DBB2022B02D1F5
:100AA000814B1B6A01E0804B5B6A4FF40032C7F850
:100AB0006021D7F8602192FAA2F2C7F85C21D7F83A
:100AC0005C21B2FA82F2D2B242F02002D2B2D2B2A9
:100AD00002F01F02D34003F00103002BA2D13B1D03
:100AE0001B681B6803F00203002B00F085816E4B2E
:100AF0005B6803F00C03002B0BD06B4B5B6803F0BF
:100B00000C03082B74D1684B5B6803F48033002B13
:100B10006ED10223C7F85831D7F8583193FAA3F3AE
:100B2000C7F85431D7F85431B3FA83F3DBB243F04A
:100B30002003DBB2DBB25B09DBB2012B02D15A4BE3
:100B40001B681AE00223C7F85031D7F8503193FAE6
:100B5000A3F3C7F84C31D7F84C31B3FA83F3DBB2C7
:100B600043F02003DBB2DBB25B09DBB2022B02D124
:100B70004D4B1B6A01E04C4B5B6A0222C7F84821CF
:100B8000D7F8482192FAA2F2C7F84421D7F84421B5
:100B9000B2FA82F2D2B242F02002D2B2D2B202F063
:100BA0001F02D34003F00103002B07D03B1D1B683D
:100BB0001B69012B02D0012300F0A3BD3A4B3A4A36
:100BC000126822F0F8013A1D12685069F822C7F83D
:100BD0004021D7F8402192FAA2F2C7F83C21D7F879
:100BE0003C21B2FA82F200FA02F20A431A6003E1EF
:100BF0003B1D1B681B69002B00F08D800123C7F88B
:100C00003831D7F8383193FAA3F3C7F83431D7F82D
:100C10003431B3FA83F39B0003F1844303F5840377
:100C200001221A60FFF7CAFBC7F8BC010AE0FFF710
:100C3000C5FB0246D7F8BC31D31A642B02D9032373
:100C400000F05FBD0223C7F83031D7F8303193FA96
:100C5000A3F3C7F82C31D7F82C31B3FA83F3DBB206
:100C600043F02003DBB2DBB25B09DBB2012B02D124
:100C70000D4B1B681CE00223C7F82831D7F8283138
:100C800093FAA3F3C7F82431D7F82431B3FA83F3E6
:100C9000DBB243F02003DBB2DBB25B09DBB2022B39
:100CA00004D1014B1B6A03E000100240BF4B5B6A9A
:100CB0000222C7F82021D7F8202192FAA2F2C7F821
:100CC0001C21D7F81C21B2FA82F2D2B242F02002E3
:100CD000D2B2D2B202F01F02D34003F00103002BC4
:100CE000A5D0B24BB14A126822F0F8013A1D126841
:100CF0005069F822C7F81821D7F8182192FAA2F201
:100D0000C7F81421D7F81421B2FA82F200FA02F2DD
:100D10000A431A6070E00123C7F81031D7F8103188
:100D200093FAA3F3C7F80C31D7F80C31B3FA83F375
:100D30009B0003F1844303F5840300221A60FFF74C
:100D40003DFBC7F8BC010AE0FFF738FB0246D7F8C5
:100D5000BC31D31A642B02D9032300F0D2BC022386
:100D6000C7F80831D7F8083193FAA3F3C7F804316C
:100D7000D7F80431B3FA83F3DBB243F02003DBB2DC
:100D8000DBB25B09DBB2012B02D1884B1B681AE096
:100D90000223C7F80031D7F8003193FAA3F3C7F85C
:100DA000FC30D7F8FC30B3FA83F3DBB243F0200316
:100DB000DBB2DBB25B09DBB2022B02D17B4B1B6ADD
:100DC00001E07A4B5B6A0222C7F8F820D7F8F820D6
:100DD00092FAA2F2C7F8F420D7F8F420B2FA82F21D
:100DE000D2B242F02002D2B2D2B202F01F02D340FD
:100DF00003F00103002BA7D13B1D1B681B6803F008
:100E00000803002B00F0F5803B1D1B689B69002B3D
:100E100073D00123C7F8F030D7F8F03093FAA3F37A
:100E2000C7F8EC30D7F8EC30B3FA83F39B001A46DE
:100E30005F4B134401221A60FFF7C0FAC7F8BC01E8
:100E40000AE0FFF7BBFA0246D7F8BC31D31A642B8D
:100E500002D9032300F055BC0223C7F8E830D7F8C5
:100E6000E83093FAA3F3C7F8E430D7F8E430B3FAE4
:100E700083F3DBB243F06003DBB2DBB25B09DBB2CE
:100E8000012B02D1494B1B681AE00223C7F8E0305E
:100E9000D7F8E03093FAA3F3C7F8DC30D7F8DC30AA
:100EA000B3FA83F3DBB243F06003DBB2DBB25B097E
:100EB000DBB2022B02D13D4B1B6A01E03B4B5B6A6C
:100EC0000222C7F8D820D7F8D82092FAA2F2C7F8A1
:100ED000D420D7F8D420B2FA82F2D2B242F0600223
:100EE000D2B2D2B202F01F02D34003F00103002BB2
:100EF000A7D00120FFF76EFA7BE00123C7F8D030BE
:100F0000D7F8D03093FAA3F3C7F8CC30D7F8CC3069
:100F1000B3FA83F39B001A46254B134400221A6050
:100F2000FFF74CFAC7F8BC0109E0FFF747FA0246A1
:100F3000D7F8BC31D31A642B01D90323E1E3022390
:100F4000C7F8C830D7F8C83093FAA3F3C7F8C4304D
:100F5000D7F8C430B3FA83F3DBB243F06003DBB2FB
:100F6000DBB25B09DBB2012B02D1104B1B6823E023
:100F700007F1C00302221A6007F1C0031B6893FA4D
:100F8000A3F207F1BC031A6007F1BC031B68B3FAB4
:100F900083F3DBB243F06003DBB2DBB25B09DBB2AD
:100FA000022B07D1014B1B6A06E000BF0010024074
:100FB00080044242A94B5B6A07F1B802022111602A
:100FC00007F1B802126892FAA2F107F1B4021160B7
:100FD00007F1B4021268B2FA82F2D2B242F06002B1
:100FE000D2B2D2B202F01F02D34003F00103002BB1
:100FF0009BD13B1D1B681B6803F00403002B00F012
:10100000BB81964B954AD26942F08052DA61934B8C
:10101000DB6903F0805207F108031A6007F1080347
:101020001B688F4B8E4A126842F480721A60FFF779
:10103000C5F9C7F8BC0109E0FFF7C0F90246D7F8C7
:10104000BC31D31A642B01D903235AE3844B1B68A8
:1010500003F48073002BEFD0804B804A126A22F099
:1010600001021A627D4B7D4A126A22F004021A6262
:10107000FFF7A4F9C7F8BC010BE0FFF79FF90246A0
:10108000D7F8BC31D21A41F288339A4201D90323EE
:1010900037E307F1B00302221A6007F1B0031B68BF
:1010A00093FAA3F207F1AC031A6007F1AC031B68D3
:1010B000B3FA83F3DBB243F04003DBB2DBB25B098C
:1010C000DBB2012B02D1654B1B681EE007F1A803C0
:1010D00002221A6007F1A8031B6893FAA3F207F132
:1010E000A4031A6007F1A4031B68B3FA83F3DBB20D
:1010F00043F04003DBB2DBB25B09DBB2022B02D16F
:10110000564B1B6A01E0554B5B6A07F1A0020221B6
:10111000116007F1A002126892FAA2F107F19C0295
:10112000116007F19C021268B2FA82F2D2B242F068
:101130004002D2B2D2B202F01F02D34003F0010348
:10114000002B9AD13B1D1B68DB68012B06D1434B5A
:10115000424A126A42F001021A622FE03B1D1B68EC
:10116000DB68002B0CD13D4B3C4A126A22F0010295
:101170001A623A4B394A126A22F004021A621DE0DE
:101180003B1D1B68DB68052B0CD1344B334A126ABC
:1011900042F004021A62314B304A126A42F00102F4
:1011A0001A620BE02D4B2D4A126A22F001021A62DC
:1011B0002A4B2A4A126A22F004021A623B1D1B685B
:1011C000DB68002B6ED0FFF7F9F8C7F8BC010BE025
:1011D000FFF7F4F80246D7F8BC31D21A41F288334F
:1011E0009A4201D903238CE207F1980302221A6084
:1011F00007F198031B6893FAA3F207F194031A60AE
:1012000007F194031B68B3FA83F3DBB243F04003A6
:10121000DBB2DBB25B09DBB2012B02D10F4B1B68E7
:1012200022E007F1900302221A6007F190031B6885
:1012300093FAA3F207F18C031A6007F18C031B6881
:10124000B3FA83F3DBB243F04003DBB2DBB25B09FA
:10125000DBB2022B06D1014B1B6A05E000100240F5
:1012600000700040B34B5B6A07F1880202211160F5
:1012700007F18802126892FAA2F107F18402116064
:1012800007F184021268B2FA82F2D2B242F040024E
:10129000D2B2D2B202F01F02D34003F00103002BFE
:1012A00096D069E0FFF78AF8C7F8BC010BE0FFF7BA
:1012B00085F80246D7F8BC31D21A41F288339A42F7
:1012C00001D903231DE207F1800302221A6007F10E
:1012D00080031B6893FAA3F207F17C031A6007F1FD
:1012E0007C031B68B3FA83F3DBB243F04003DBB249
:1012F000DBB25B09DBB2012B02D18E4B1B681EE017
:1013000007F1780302221A6007F178031B6893FA49
:10131000A3F207F174031A6007F174031B68B3FAB0
:1013200083F3DBB243F04003DBB2DBB25B09DBB239
:10133000022B02D17F4B1B6A01E07E4B5B6A07F1F7
:1013400070020221116007F17002126892FAA2F194
:1013500007F16C02116007F16C021268B2FA82F2B6
:10136000D2B242F04002D2B2D2B202F01F02D34057
:1013700003F00103002B9AD13B1D1B68DB69002B96
:1013800000F0BE816B4B5B6803F00C03082B00F090
:10139000B5813B1D1B68DB69022B40F02A8107F1F8
:1013A00068034FF080721A6007F168031B6893FAB4
:1013B000A3F207F164031A6007F164031B68B3FA30
:1013C00083F39B0003F1844303F5840300221A6036
:1013D000FEF7F4FFC7F8BC0109E0FEF7EFFF024695
:1013E000D7F8BC31D31A642B01D9032389E107F163
:1013F00060034FF000721A6007F160031B6893FAF4
:10140000A3F207F15C031A6007F15C031B68B3FAEF
:1014100083F3DBB243F02003DBB2DBB25B09DBB268
:10142000012B02D1434B1B681FE007F158034FF01B
:1014300000721A6007F158031B6893FAA3F207F1D0
:1014400054031A6007F154031B68B3FA83F3DBB249
:1014500043F02003DBB2DBB25B09DBB2022B02D12B
:10146000344B1B6A01E0334B5B6A07F150024FF0CB
:101470000071116007F15002126892FAA2F107F1AF
:101480004C02116007F14C021268B2FA82F2D2B239
:1014900042F02002D2B2D2B202F01F02D34003F0D7
:1014A0000103002B99D13B1D1B681B6AB3F5803FDC
:1014B00009D1204B1F4A526822F400313A1D1268AC
:1014C00092680A435A601B4B1A4A526822F47411FC
:1014D0003A1D1268106A3A1D1268526A02430A43A2
:1014E0005A6007F148034FF080721A6007F1480311
:1014F0001B6893FAA3F207F144031A6007F144034F
:101500001B68B3FA83F39B0003F1844303F5840360
:1015100001221A60FEF752FFC7F8BC010CE0FEF78B
:101520004DFF0246D7F8BC31D31A642B04D90323EC
:10153000E7E000BF0010024007F140034FF00072E7
:101540001A6007F140031B6893FAA3F207F13C030A
:101550001A6007F13C031B68B3FA83F3DBB243F074
:101560002003DBB2DBB25B09DBB2012B02D1674B9C
:101570001B681FE007F138034FF000721A6007F193
:1015800038031B6893FAA3F207F134031A6007F1DA
:1015900034031B68B3FA83F3DBB243F02003DBB2FE
:1015A000DBB25B09DBB2022B02D1584B1B6A01E0B4
:1015B000564B5B6A07F130024FF00071116007F182
:1015C0003002126892FAA2F107F12C02116007F1C1
:1015D0002C021268B2FA82F2D2B242F02002D2B2E7
:1015E000D2B202F01F02D34003F00103002B96D0C9
:1015F00086E007F128034FF080721A6007F1280394
:101600001B6893FAA3F207F124031A6007F124037D
:101610001B68B3FA83F39B0003F1844303F584034F
:1016200000221A60FEF7CAFEC7F8BC0109E0FEF707
:10163000C5FE0246D7F8BC31D31A642B01D9032367
:101640005FE007F120034FF000721A6007F12003FA
:101650001B6893FAA3F207F11C031A6007F11C033D
:101660001B68B3FA83F3DBB243F02003DBB2DBB2D7
:101670005B09DBB2012B02D1244B1B681FE007F191
:1016800018034FF000721A6007F118031B6893FAF1
:10169000A3F207F114031A6007F114031B68B3FAED
:1016A00083F3DBB243F02003DBB2DBB25B09DBB2D6
:1016B000022B02D1154B1B6A01E0144B5B6A07F148
:1016C00010024FF00071116007F11002126892FAD7
:1016D000A2F107F10C02116007F10C021268B2FAD4
:1016E00082F2D2B242F02002D2B2D2B202F01F0293
:1016F000D34003F00103002B99D101E0012300E066
:101700000023184607F5E077BD4680BD0010024073
:1017100080B5A8B000AF786039600023C7F89C306E
:10172000AF4B1B6803F007023B689A4280F063816D
:10173000AB4BAB4A126822F007013A680A431A60C1
:10174000A74B1B6803F007023B689A4201D00123B4
:10175000C6E27B681B6803F00203002B08D0A14B94
:10176000A04A526822F0F0017A6892680A435A60EF
:101770007B681B6803F00103002B00F08E827B68FE
:101780005B68012B52D14FF40033C7F89830D7F87B
:10179000983093FAA3F3C7F89430D7F89430B3FA9B
:1017A00083F3DBB243F02003DBB2DBB25B09DBB2D5
:1017B000012B02D18B4B1B681BE04FF40033C7F8A1
:1017C0009030D7F8903093FAA3F3C7F88C30D7F85D
:1017D0008C30B3FA83F3DBB243F02003DBB2DBB22D
:1017E0005B09DBB2022B02D17E4B1B6A01E07D4B11
:1017F0005B6A4FF40032C7F88820D7F8882092FA45
:10180000A2F2C7F88420D7F88420B2FA82F2D2B2CA
:1018100042F02002D2B2D2B202F01F02D34003F053
:101820000103002B40F09180012359E27B685B6843
:10183000022B47D14FF00073C7F88030D7F88030C3
:1018400093FAA3F3FB67FB6FB3FA83F3DBB243F0C6
:101850002003DBB2DBB25B09DBB2012B02D1614BAF
:101860001B6817E04FF00073BB67BB6F93FAA3F3DD
:101870007B677B6FB3FA83F3DBB243F02003DBB209
:10188000DBB25B09DBB2022B02D1564B1B6A01E0D3
:10189000544B5B6A4FF000723A673A6F92FAA2F2C9
:1018A000FA66FA6EB2FA82F2D2B242F02002D2B2F4
:1018B000D2B202F01F02D34003F00103002B44D147
:1018C00001230DE20223BB66BB6E93FAA3F37B6692
:1018D0007B6EB3FA83F3DBB243F02003DBB2DBB2FF
:1018E0005B09DBB2012B02D13E4B1B6816E00223E1
:1018F0003B663B6E93FAA3F3FB65FB6DB3FA83F390
:10190000DBB243F02003DBB2DBB25B09DBB2022BBC
:1019100002D1344B1B6A01E0324B5B6A0222BA658A
:10192000BA6D92FAA2F27A657A6DB2FA82F2D2B206
:1019300042F02002D2B2D2B202F01F02D34003F032
:101940000103002B01D10123CAE1264B254A52682D
:1019500022F003017A6852680A435A60FEF72EFDAE
:10196000C7F89C007B685B68012B13D10BE0FEF786
:1019700025FD0246D7F89C30D21A41F288339A42AC
:1019800001D90323ACE1174B5B6803F00C03042B74
:10199000EDD182E17B685B68022B13D10BE0FEF78F
:1019A0000DFD0246D7F89C30D21A41F288339A4294
:1019B00001D9032394E10B4B5B6803F00C03082B64
:1019C000EDD16AE110E0FEF7F9FC0246D7F89C3051
:1019D000D21A41F288339A4206D9032380E100BF2C
:1019E00000200240001002409F4B5B6803F00C0394
:1019F000002BE8D151E17B681B6803F00203002B48
:101A000008D0994B984A526822F0F0017A6892689F
:101A10000A435A607B681B6803F00103002B00F047
:101A20002B817B685B68012B46D14FF400333B650B
:101A30003B6D93FAA3F3FB64FB6CB3FA83F3DBB265
:101A400043F02003DBB2DBB25B09DBB2012B02D136
:101A5000854B1B6817E04FF40033BB64BB6C93FAF3
:101A6000A3F37B647B6CB3FA83F3DBB243F0200314
:101A7000DBB2DBB25B09DBB2022B02D17A4B1B6A11
:101A800001E0794B5B6A4FF400323A643A6C92FAA7
:101A9000A2F2FA63FA6BB2FA82F2D2B242F02002F8
:101AA000D2B2D2B202F01F02D34003F00103002BE6
:101AB00040F08F80012313E17B685B68022B45D1E6
:101AC0004FF00073BB63BB6B93FAA3F37B637B6B39
:101AD000B3FA83F3DBB243F02003DBB2DBB25B0982
:101AE000DBB2012B02D1604B1B6817E04FF0007393
:101AF0003B633B6B93FAA3F3FB62FB6AB3FA83F39A
:101B0000DBB243F02003DBB2DBB25B09DBB2022BBA
:101B100002D1554B1B6A01E0534B5B6A4FF00072D8
:101B2000BA62BA6A92FAA2F27A627A6AB2FA82F275
:101B3000D2B242F02002D2B2D2B202F01F02D3409F
:101B400003F00103002B44D10123C9E002233B62CF
:101B50003B6A93FAA3F3FB61FB69B3FA83F3DBB24D
:101B600043F02003DBB2DBB25B09DBB2012B02D115
:101B70003D4B1B6816E00223BB61BB6993FAA3F3DC
:101B80007B617B69B3FA83F3DBB243F02003DBB202
:101B9000DBB25B09DBB2022B02D1334B1B6A01E0E3
:101BA000314B5B6A02223A613A6992FAA2F2FA6018
:101BB000FA68B2FA82F2D2B242F02002D2B2D2B2C3
:101BC00002F01F02D34003F00103002B01D10123D7
:101BD00086E0254B244A526822F003017A68526855
:101BE0000A435A60FEF7EAFBC7F89C007B685B6813
:101BF000012B13D10BE0FEF7E1FB0246D7F89C3036
:101C0000D21A41F288339A4201D9032368E0164B75
:101C10005B6803F00C03042BEDD12DE07B685B685F
:101C2000022B13D10BE0FEF7C9FB0246D7F89C301C
:101C3000D21A41F288339A4201D9032350E00A4B69
:101C40005B6803F00C03082BEDD115E00EE0FEF706
:101C5000B5FB0246D7F89C30D21A41F288339A423B
:101C600004D903233CE000BF001002401E4B5B6818
:101C700003F00C03002BEAD11C4B1C4A126822F023
:101C800007013A680A431A60184B1B6803F0070201
:101C90003B689A4201D0012322E07B681B6803F075
:101CA0000403002B08D0104B0F4A526822F4E06165
:101CB0007A68D2680A435A607B681B6803F008039D
:101CC000002B09D0084B084A526822F460517A6808
:101CD0001269D2000A435A600020FEF745FB002338
:101CE0001846A037BD4680BD0010024000200240CB
:101CF00090B48EB000AF364B3C1D186859689A6896
:101D0000DB680FC4334A3B4612881A800023FB620B
:101D10000023BB6200237B6300237B6200233B63C1
:101D20002D4B5B68FB62FB6A03F00C03042B02D0B3
:101D3000082B03D043E0294B3B6343E0FB6A03F4E9
:101D400070124FF470133B623B6A93FAA3F3FB618A
:101D5000FB69B3FA83F322FA03F307F13802134461
:101D600013F8343C7B62FB6A03F48033002B1ED0F3
:101D7000194B5B6803F400324FF40033BB61BB695D
:101D800093FAA3F37B617B69B3FA83F322FA03F33B
:101D900007F13802134413F8383CBB620F4ABB6AA0
:101DA000B2FBF3F37A6A02FB03F37B6304E07B6A22
:101DB0000B4A02FB03F37B637B6B3B6302E0074B45
:101DC0003B6300BF3B6B18463837BD4690BC70473D
:101DD000AC6A0008BC6A00080010024000127A00D9
:101DE00000093D0080B582B000AFFFF781FF0246D9
:101DF0000C4B5B6803F0F001F0237B607B6893FA87
:101E0000A3F33B603B68B3FA83F321FA03F306497B
:101E1000CB5CDA40054B1A60044B1B681846083748
:101E2000BD4680BD001002409C6A000800000020F2
:101E300080B584B000AF78600B46FB700023FB7365
:101E4000786881210322042303F030F8102003F086
:101E5000E7F802467B68C3F818227B68D3F818328B
:101E6000002B02D10123FB7304E07B68D3F8183206
:101E700000221A73FB7B18461037BD4680BD00BF99
:101E800080B582B000AF78600B46FB707868812126
:101E900003F020F87B68D3F81832002B09D07B6858
:101EA000D3F81832184603F0C9F87B680022C3F84B
:101EB0001822002318460837BD4680BD80B586B07D
:101EC00000AF786039600023FB8200233B617B68B0
:101ED000D3F81832FB603B681B7803F06003002BDB
:101EE00044D0202B7DD13B685B78023B092B36D850
:101EF00001A252F823F000BF4F1F00082F1F000857
:101F00005F1F00085F1F00085F1F00085F1F0008B9
:101F10005F1F00085F1F00083D1F0008211F000809
:101F20003B685B88DBB21A46FB681A601DE0FB6801
:101F300078681946012204F051FC16E03B685B8882
:101F40001B0A9BB2DBB21A46FB685A600DE0FB68C5
:101F5000043378681946012204F040FC05E07868F3
:101F6000396804F095FB02233CE03AE03B685B787B
:101F70000A2B27D00B2B2DD0062B32D13B685B8848
:101F80001B0A9BB2222B08D13B68DB883D2B28BF64
:101F90003D23FB82154B3B610DE03B685B881B0AD0
:101FA0009BB2212B07D1124B3B613B68DB88092B8D
:101FB00028BF0923FB82FB8A786839691A4604F036
:101FC0000DFC0EE0FB68083378681946012204F026
:101FD00005FC06E03B685B88DBB21A46FB689A604A
:101FE00000BF002318461837BD4680BD780000208A
:101FF0006000002080B586B000AFF860B96013467D
:10200000FB80FB68D3F818327B61FB6893F8FC31E6
:10201000032B0CD17B691B7B002B08D17B69012230
:102020001A73FB88F8688121BA6802F0C9FF00239F
:1020300018461837BD4680BD80B483B000AF7860C5
:102040007B6822221A80034B18460C37BD465DF888
:10205000047B70473C00002080B483B000AF786000
:102060000B46FB707B68D3F8183200221A730023EA
:1020700018460C37BD465DF8047B704780B483B0CA
:1020800000AF78607B680A221A80034B18460C3731
:10209000BD465DF8047B70476C000020002100F015
:1020A00004B80C4B5B58435004310B480B4B42189F
:1020B0009A42FFF4F6AF0A4A00F003B8002342F850
:1020C000043B084B9A42FFF4F9AFFEF7E1FA01F046
:1020D00009FA7047206B0008000000202805002046
:1020E00028050020FC0D0020FFF7FEBFF0B58BB0E7
:1020F00006AF78600023FB607B68002B01D10123D1
:10210000C6E07B6893F8E933DBB2002B06D17B682D
:10211000002283F8E823786802F0AEFD7B68032292
:1021200083F8E9237B681B68184601F0CFFA7B68C7
:10213000D3F800E07E686C4606F110050FCD0FC4A1
:102140002B682360331D0ECB704601F091FA7B683B
:102150001B681846002101F0D7FA0023FB6035E028
:102160007A68FB685B011344283301225A70FB68CC
:10217000DAB27968FB685B010B4428331A70FB689C
:102180009AB27968FB685B010B4430339A807A68B5
:10219000FB685B01134428330022DA707A68FB681D
:1021A0005B011344383300221A607A68FB685B01D4
:1021B0001344383300225A607A68FB6802335B01AB
:1021C000134400221A60FB680133FB60FB680E2B8E
:1021D000C6D90023FB603AE07A68FB685B011344D0
:1021E00003F5027300225A70FB68DAB27968FB6863
:1021F0005B010B4403F502731A70FB689AB27968AD
:10220000FB685B010B4430339A807A68FB685B01A2
:10221000134403F502730022DA707A68FB685B01ED
:10222000134403F5067300221A607A68FB685B01A9
:10223000134403F5067300225A607A68FB68113371
:102240005B01134400221A60FB680133FB60FB68EA
:102250000E2BC1D97B68D3F800E07E686C4606F18E
:1022600010050FCD0FC42B682360331D0ECB7046B5
:1022700001F058FA7B68002283F824207B68012251
:1022800083F8E9237B681B68184602F049FA0023AB
:1022900018461437BD46F0BD80B582B000AF7860F7
:1022A0007B6893F8E833012B01D1022316E07B68A9
:1022B000012283F8E8237868012102F0C9FE7B68D7
:1022C0001B68184602F020FA7B681B68184601F06C
:1022D000E1F97B68002283F8E823002318460837D9
:1022E000BD4680BD80B584B000AF78600023FB6040
:1022F0007B681B68184602F01FFA034603F400438C
:10230000002B02D0786800F0CDFA7B681B68184675
:1023100002F012FA034603F48063002B12D07B68AC
:102320001B687A681268B2F8442092B222F4806284
:1023300092B2A3F84420786802F014FD7868002176
:1023400000F0C8F87B681B68184602F0F5F90346F0
:1023500003F48043002B0BD07B681B687A681268FB
:10236000B2F8442092B222F4804292B2A3F8442000
:102370007B681B68184602F0DFF9034603F400533C
:10238000002B0BD07B681B687A681268B2F8442077
:1023900092B222F4005292B2A3F844207B681B68E8
:1023A000184602F0C9F9034603F48053002B23D0EA
:1023B0007B681B687A681268B2F8402092B222F0FB
:1023C000040292B2A3F840204FF43D43FB607B68C7
:1023D0001B68FA6892B2A3F84020786802F0FEFC0D
:1023E0007B681B687A681268B2F8442092B222F4C3
:1023F000805292B2A3F844207B681B68184602F012
:102400009BF9034603F40063002B30D07B681B6804
:102410007A681268B2F8442092B222F4006292B252
:10242000A3F844207B681B687A681268B2F84020E1
:1024300092B242F0080292B2A3F840207B681B6877
:102440007A681268B2F8402092B242F0040292B266
:10245000A3F840207B681B68184602F06DF903461C
:1024600003F48053002B02D1786802F09DFC7B6856
:102470001B68184602F060F9034603F40073002B52
:102480000ED07B681B687A681268B2F8442092B25A
:1024900022F4007292B2A3F84420786802F054FC4F
:1024A0007B681B68184602F047F9034603F4807303
:1024B000002B0BD07B681B687A681268B2F8442046
:1024C00092B222F4807292B2A3F844201037BD4633
:1024D00080BD00BF80B582B000AF78600B46FB7056
:1024E0007B6893F8E833012B01D1022313E07B686A
:1024F000012283F8E8237B68FA7883F824207B683C
:102500001A68FB781046194602F0EAF87B68002248
:1025100083F8E823002318460837BD4680BD00BF76
:1025200080B584B000AF7860F9703A80BB7000234A
:10253000FB720023FB60FB785BB2002B08DAFB78B0
:1025400003F07F035B0128337A681344FB6008E0E3
:10255000FB7803F07F035B0103F502737A68134491
:10256000FB60FB7803F07F03DAB2FB681A70FB783C
:10257000DB09DBB21A46FB685A703A88FB681A61BD
:10258000FB68BA78DA707B6893F8E833012B01D1E5
:1025900002230EE07B68012283F8E8237B681B6836
:1025A0001846F96801F0E0F87B68002283F8E82318
:1025B000FB7A18461037BD4680BD00BF80B584B099
:1025C00000AF78600B46FB700023FB60FB785BB2CA
:1025D000002B08DAFB7803F07F035B0128337A686D
:1025E0001344FB6008E0FB7803F07F035B0103F515
:1025F00002737A681344FB60FB7803F07F03DAB25E
:10260000FB681A70FB78DB09DBB21A46FB685A706C
:102610007B6893F8E833012B01D102230EE07B683D
:10262000012283F8E8237B681B681846F96801F0EB
:102630005DFB7B68002283F8E823002318461037EF
:10264000BD4680BD80B586B000AFF8607A603B6063
:102650000B46FB7200237B61FB7A03F07F035B0177
:1026600003F50273FA6813447B617B697A685A61E7
:102670007B693A689A617B690022DA617B69002292
:102680005A70FB7A03F07F03DAB27B691A70FB6839
:1026900093F8E833012B01D102231AE0FB680122F1
:1026A00083F8E823FB7A03F07F03002B06D1FB6855
:1026B0001B681846796901F0A1FC05E0FB681B68FE
:1026C0001846796901F09AFCFB68002283F8E82338
:1026D000002318461837BD4680BD00BF80B586B0C0
:1026E00000AFF8607A603B600B46FB7200237B61B1
:1026F000FB7A03F07F035B012833FA6813447B61A4
:102700007B697A685A617B693A689A617B690022C1
:10271000DA617B6901225A70FB7A03F07F03DAB237
:102720007B691A70FB6893F8E833012B01D102230F
:102730001AE0FB68012283F8E823FB7A03F07F03A9
:10274000002B06D1FB681B681846796901F056FC1E
:1027500005E0FB681B681846796901F04FFCFB68CF
:10276000002283F8E823002318461837BD4680BDB1
:1027700080B584B000AF78600B46FB700023FB602F
:10278000FB785BB2002B08DAFB7803F07F035B0178
:1027900028337A681344FB6006E0FB785B0103F59D
:1027A00002737A681344FB60FB6801229A70FB781D
:1027B00003F07F03DAB2FB681A70FB78DB09DBB247
:1027C0001A46FB685A707B6893F8E833012B01D1F5
:1027D00002231CE07B68012283F8E8237B681B68E6
:1027E0001846F96801F092FEFB7803F07F03002B96
:1027F00008D17B681A687B6803F57B73104619461D
:1028000001F0ACFF7B68002283F8E8230023184620
:102810001037BD4680BD00BF80B584B000AF786082
:102820000B46FB700023FB60FB785BB2002B08DAE1
:10283000FB7803F07F035B0128337A681344FB6065
:1028400006E0FB785B0103F502737A681344FB60D2
:10285000FB6800229A70FB7803F07F03DAB2FB6812
:102860001A70FB78DB09DBB21A46FB685A707B688A
:1028700093F8E833012B01D102230EE07B6801229B
:1028800083F8E8237B681B681846F96801F09EFE10
:102890007B68002283F8E823002318461037BD46E2
:1028A00080BD00BF90B589B000AF78600023BB61E8
:1028B0000023FB830023FB750023FB810023BB81E6
:1028C00013E3FB899BB2DBB203F00F03FB75FB7DC7
:1028D000002B40F02E81FB899BB203F01003002BEC
:1028E0004DD17B681A687B681B681B889BB223F4F8
:1028F000E14323F070039BB213807B682833BB61F4
:102900007B681B68B3F850309BB21A46BB691B78D2
:10291000DB00134402335B001A467B681B681344D8
:1029200003F580631B689BB2C3F30902BB69DA61DC
:10293000BB695A69BB69DB691A44BB695A6178682B
:10294000002102F0E9F97B6893F82430DBB2002B18
:1029500000F0CB82BB699B69002B40F0C6827B688C
:102960001B687A6892F82420D2B262F07F02D2B259
:10297000A3F84C207B68002283F82420B5E27B6812
:1029800003F50273BB617B681B681B889BB2BB812C
:10299000BB899BB203F40063002B32D07B681B68B9
:1029A000B3F850309BB21A46BB691B78DB00134466
:1029B00006335B001A467B681B68134403F580638B
:1029C0001B689BB2C3F30902BB69DA617B681868B4
:1029D0007B6803F57B71BB699A88BB69DB699BB235
:1029E00001F00AFF7B681A687B681B681B8899B234
:1029F00040F68F730B409BB21380786802F060F949
:102A000073E2BB899BB29BB21BB2002B80F26D823A
:102A10007B681A687B681B681B8899B240F68F73C5
:102A20000B409BB213807B681B68B3F850309BB29D
:102A30001A46BB691B78DB00134406335B001A4659
:102A40007B681B68134403F580631B689BB2C3F368
:102A50000902BB69DA61BB69DB69002B11D07B68B5
:102A60001868BB695969BB699A88BB69DB699BB205
:102A700001F0C2FEBB695A69BB69DB691A44BB69D4
:102A80005A617868002102F02DF97B681B68B3F861
:102A900050309BB206335B001A467B681B681344B8
:102AA00003F580633B61BB691B693E2B18D9BB6989
:102AB0001B695B09BB83BB691B6903F01F03002B08
:102AC00002D1BB8B013BBB83BB8B9B029BB26FEAEA
:102AD00043436FEA53439BB21A463B691A6012E0C4
:102AE000BB691B695B08BB83BB691B6903F00103FE
:102AF000002B02D0BB8B0133BB83BB8B9B029BB2F1
:102B00001A463B691A607B681B681B889BB223F4DA
:102B1000804323F070039CB284F480539CB284F40D
:102B200000539CB27B681A689A4B23439BB2138074
:102B3000DBE17B681B681A46FB7D9B0013441B8806
:102B40009BB2BB81BB899BB29BB21BB2002B80F2B4
:102B5000D3807B681B681A46FB7D9B001A447B6808
:102B60001B681946FB7D9B000B441B8899B240F6FD
:102B70008F730B409BB21380FB7D5B0103F50273E7
:102B80007A681344BB61BB699B7A002B23D17B68B5
:102B90001B68B3F850309BB21A46BB691B78DB0048
:102BA000134406335B001A467B681B68134403F525
:102BB00080631B689BB2C3F30903FB83FB8B002B71
:102BC00075D07B681868BB695969BB699A88FB8BAB
:102BD00001F012FE6BE07B681B681A46BB691B782C
:102BE0009B0013441B889BB203F48043002B23D02B
:102BF0007B681B68B3F850309BB21A46BB691B78E0
:102C0000DB00134402335B001A467B681B681344E5
:102C100003F580631B689BB2C3F30903FB83FB8B43
:102C2000002B2CD07B681868BB695969BB69DA88AE
:102C3000FB8B01F0E1FD22E07B681B68B3F85030AC
:102C40009BB21A46BB691B78DB00134406335B005A
:102C50001A467B681B68134403F580631B689BB2AC
:102C6000C3F30903FB83FB8B002B08D07B68186838
:102C7000BB695969BB691A89FB8B01F0BDFD7B6893
:102C80001B681A46BB691B789B001A447B681B684B
:102C90001946BB691B789B000B441B8899B240F610
:102CA0000F730B4099B23C4B0B439BB21380BB6933
:102CB000DA69FB8B1A44BB69DA61BB695A69FB8B21
:102CC0001A44BB695A61BB699B69002B04D0FA8B1B
:102CD000BB691B699A4206D2BB691B7878681946A2
:102CE00002F000F808E0BB691978BB695A69BB6952
:102CF0009B697868FFF7A6FCBB899BB203F0800351
:102D0000002B00F0F280FB7D5B0128337A681344CE
:102D1000BB617B681B681A46FB7D9B001A447B687D
:102D20001B681946FB7D9B000B441B889BB223F458
:102D3000E14323F070039BB21380BB699B7A002BA5
:102D40002CD17B681B68B3F850309BB21A46BB6924
:102D50001B78DB00134402335B001A467B681B6858
:102D6000134403F580631B689BB2C3F30902BB697C
:102D7000DA61BB69DB69002B00F084807B6818682E
:102D8000BB695969BB699A88BB69DB699BB201F071
:102D9000F1FC77E08080FFFFC080FFFF7B681B684D
:102DA0001A46BB691B789B0013441B889BB203F037
:102DB0004003002B27D07B681B68B3F850309BB2D0
:102DC0001A46BB691B78DB00134402335B001A46CA
:102DD0007B681B68134403F580631B689BB2C3F3D5
:102DE0000902BB69DA61BB69DB69002B32D07B6801
:102DF0001868BB695969BB69DA88BB69DB699BB232
:102E000001F0B8FC26E07B681B68B3F850309BB239
:102E10001A46BB691B78DB00134406335B001A4675
:102E20007B681B68134403F580631B689BB2C3F384
:102E30000902BB69DA61BB69DB69002B0AD07B68D8
:102E40001868BB695969BB691A89BB69DB699BB2A0
:102E500001F090FC7B681B681A46BB691B789B00DD
:102E60001A447B681B681946BB691B789B000B449E
:102E70001B8899B240F60F730B4099B2234B0B435A
:102E80009BB213807B681B68B3F850309BB21A4624
:102E9000BB691B78DB00134402335B001A467B6876
:102EA0001B68134403F580631B689BB2C3F30902DC
:102EB000BB69DA61BB695A69BB69DB691A44BB69E2
:102EC0005A61BB699B69002B06D1BB691B78786886
:102ED000194601F021FF08E0BB691978BB695A69FE
:102EE000BB699B697868FFF7F9FB7B681B68B3F8DF
:102EF00044309BB21A46FA819BB21BB2002BFFF6FC
:102F0000E0AC002318462437BD4690BD80C0FFFFCB
:102F100080B584B000AFF860B9601346FB71FB6800
:102F2000002B01D102231AE0FB68D3F81432002BE6
:102F300003D0FB680022C3F81422BB68002B03D027
:102F4000FB68BA68C3F81022FB68012283F8FC21F1
:102F5000FB68FA791A70F86801F04EFF00231846F2
:102F60001037BD4680BD00BF80B485B000AF78602B
:102F700039600023FB733B68002B06D07B683A68FE
:102F8000C3F814220023FB7301E00223FB73FB7BD5
:102F900018461437BD465DF8047B704780B582B093
:102FA00000AF7860786801F071FF00231846083799
:102FB000BD4680BD80B483B000AF78600023184662
:102FC0000C37BD465DF8047B704700BF80B584B008
:102FD00000AF78600B46FB700223FB737B68D3F86D
:102FE0001432002B0CD07B68D3F814321B68FA78AB
:102FF0007868114698470346002B01D10023FB73E4
:10300000FB7B18461037BD4680BD00BF80B582B03F
:1030100000AF78600B46FB707B68D3F814325B68B6
:10302000FA78786811469847002318460837BD4655
:1030300080BD00BF80B582B000AF786039607B682A
:1030400003F502731846396803F0E8FA7B68012239
:10305000C3F8F4217B68B3F80E321A467B68C3F8D4
:10306000F8217B6893F8083203F01F03012B0BD083
:10307000022B11D0002B17D17B6803F502737868FF
:10308000194602F00DFF1AE07B6803F502737868B9
:10309000194602F055FF12E07B6803F50273786869
:1030A000194602F081FF0AE07B6893F8083223F0AA
:1030B0007F03DBB27868194601F020FF00BF0023D0
:1030C00018460837BD4680BD80B586B000AFF860B1
:1030D0000B467A60FB72FB7A002B38D1FB6803F554
:1030E00082737B61FB68D3F8F431032B42D17B6997
:1030F0009A687B69DB689A4214D97B699A687B6914
:10310000DB68D21A7B699A607B69DA687B699B68A5
:103110009A4238BF13469BB2F86879681A4603F0A2
:103120008BFB27E0FB68D3F814321B69002B0AD015
:10313000FB6893F8FC31032B05D1FB68D3F81432FC
:103140001B69F8689847F86803F088FB12E0FB6891
:10315000D3F814329B69002B0CD0FB6893F8FC3138
:10316000032B07D1FB68D3F814329B69FA7AF8680D
:1031700011469847002318461837BD4680BD00BF4A
:1031800080B586B000AFF8600B467A60FB72FB7AC0
:10319000002B6CD1FB6814337B61FB68D3F8F431EE
:1031A000022B57D17B699A687B69DB689A4215D9F3
:1031B0007B699A687B69DB68D21A7B699A607B6954
:1031C0009B689BB2F86879681A4603F023FBF8689D
:1031D00000210022002301F00BFF3BE07B695B68CC
:1031E0007A69D268B3FBF2F102FB01F29B1A002B61
:1031F0001CD17B695A687B69DB689A4216D37B696C
:103200005A68FB68D3F8F8319A420FD2F868002167
:10321000002203F0FFFAFB680022C3F8F821F868E7
:1032200000210022002301F0E3FE13E0FB68D3F845
:103230001432DB68002B0AD0FB6893F8FC31032BB7
:1032400005D1FB68D3F81432DB68F8689847F86852
:1032500003F018FBFB6893F80032012B1AD1F868D1
:10326000FFF7A8FEFB68002283F8002212E0FB684B
:10327000D3F814325B69002B0CD0FB6893F8FC3157
:10328000032B07D1FB68D3F814325B69FA7AF8682C
:1032900011469847002318461837BD4680BD00BF29
:1032A00080B582B000AF78607868002100224023AA
:1032B00001F0FCFD7B684022C3F810217868802172
:1032C0000022402301F0F2FD7B6840221A627B68F5
:1032D000012283F8FC217B68D3F81832002B09D037
:1032E0007B68D3F814325B687A685268D2B2786827
:1032F00011469847002318460837BD4680BD00BFD9
:1033000080B483B000AF78600B46FB707B68FA78BE
:103310001A74002318460C37BD465DF8047B7047CD
:1033200080B483B000AF78607B6893F8FC217B6841
:1033300083F8FD217B68042283F8FC2100231846D2
:103340000C37BD465DF8047B704700BF80B483B086
:1033500000AF78607B6893F8FD217B6883F8FC21DF
:10336000002318460C37BD465DF8047B704700BF4C
:1033700080B582B000AF78607B6893F8FC31032B96
:103380000BD17B68D3F81432DB69002B05D07B6846
:10339000D3F81432DB697868984700231846083759
:1033A000BD4680BD80B584B000AF786078680021EC
:1033B00002F02AFA0346BB81BA8941F288339A4265
:1033C00070D9444B1B78002B6CD1434B00221A70F0
:1033D0000023FB7328E0FA7B404B33F81230B3F53F
:1033E0007A7F06D2FA7B3D4B4FF47A7123F81210A4
:1033F0000CE0FA7B394B33F81230B3F5FA6F05D98C
:10340000FA7B364B4FF4FA6123F81210FA7BF97B02
:10341000324B33F81130A3F57A7399B2304B23F85D
:103420001210FB7B0133FB73FB7B032BD3D92C4B9B
:1034300000221A81294B1A8940F2DC539A4206D99C
:10344000274B1B8943F010039AB2254B1A81234B5B
:103450005A8940F2DC539A4206D9214B1B8943F02A
:1034600020039AB21E4B1A811C4B9A8940F2DC53FE
:103470009A4206D91A4B1B8943F040039AB2184B63
:103480001A81164BDA8940F2DC539A4206D9144B62
:103490001B8943F080039AB2114B1A810D4B012214
:1034A0001A700CE00C4B1B781A460C4BB98923F8A8
:1034B0001210094B1B780133DAB2074B1A70064B16
:1034C0001B78082B02D1044B00221A701037BD461E
:1034D00080BD00BF63050020620500204805002074
:1034E0005805002080B500AFFCF728FF00F020F859
:1034F00000F0B8F800F064F803F0D8F908480021AB
:1035000001F066FE074B1B78002B08D006480749E0
:103510000A22FEF76FFD034B00221A70F2E7F1E773
:103520007C05002063050020D80B002058050020F2
:1035300080B594B000AF0123BB624FF48033FB62CF
:1035400000233B6302237B644FF48033BB644FF45E
:10355000E013FB6407F128031846FDF7CDF80523B7
:103560007B610223BB610023FB614FF480633B62FC
:1035700000237B6207F1140318460221FEF7C8F806
:1035800010237B6000233B613B1D1846FCF7E8FDE0
:10359000FEF728FC0246094BA3FB02139B091846C1
:1035A000FDF742F80420FDF74BF84FF0FF30002103
:1035B0000022FDF70FF85037BD4680BDD34D621095
:1035C00080B590B000AF254B254A1A60234B4722A7
:1035D0005A60224B00229A60204B4FF6FF72DA604D
:1035E0001E4B00221A611D4B00225A611B4801F03C
:1035F0008DFD4FF480533B6307F1300317481946A4
:1036000001F0EAFF154801F0ADFD0423FB615023F2
:103610003B6202237B620023FB6207F11C030F481D
:10362000194602F0BBF800237B610023BB6107F160
:1036300014030A48194603F04FF902237B60012363
:10364000BB600023FB6000233B613B1D0348194620
:10365000002201F025FF4037BD4680BD7C050020DB
:10366000002C014080B400AFBD465DF8047B70477C
:1036700084B080B483B000AF786007F1140080E8B4
:103680000E00002318460C37BD465DF8047B04B0DD
:10369000704700BF80B485B000AF78600023FB6046
:1036A0004FF43D43FB607B68B3F840309AB2FB684F
:1036B0009BB213439AB27B68A3F8402000231846BC
:1036C0001437BD465DF8047B704700BF80B485B0F9
:1036D00000AF78600023FB604FF43D43FB607B68E4
:1036E000B3F840309AB2FB689BB2DB439BB2134005
:1036F0009AB27B68A3F84020002318461437BD46D1
:103700005DF8047B704700BF80B483B000AF786081
:103710000B46FB70002318460C37BD465DF8047B52
:10372000704700BF84B080B483B000AF786007F109
:10373000140080E80E007B680122A3F840207B681B
:103740000022A3F840207B680022A3F844207B6875
:103750000022A3F85020002318460C37BD465DF820
:10376000047B04B0704700BF90B484B000AF7860B1
:1037700039603B68DB78032B5FD801A252F823F055
:10378000913700080F380008BD370008E3370008FC
:103790007A683B681B789B001A4479683B681B7801
:1037A0009B000B441B889BB223F4EC4323F0700373
:1037B0009BB243F400739BB213803FE07A683B688E
:1037C0001B789B001A4479683B681B789B000B446C
:1037D0001B889BB223F4EC4323F070039BB213804D
:1037E0002CE07A683B681B789B001A4479683B6838
:1037F0001B789B000B441B889BB223F4EC4323F003
:1038000070039BB243F4C0639BB2138016E07A68E6
:103810003B681B789B001A4479683B681B789B00C7
:103820000B441B889BB223F4EC4323F070039BB240
:1038300043F480639BB2138000E000BF7A683B686A
:103840001B789B001A4479683B681B789B000B44EB
:103850001B8899B240F60F730B4099B23B681B78F6
:103860000B4399B2754B0B439BB213803B689B7A19
:10387000002B40F0E9803B685B78002B4CD07B68E4
:10388000B3F850309BB21A463B681B78DB001344F8
:103890005B001A467B68134403F580633A6892889C
:1038A000520892B252001A607A683B681B789B00FB
:1038B00013441B889BB203F04003002B13D07A689B
:1038C0003B681B789B001A4479683B681B789B0017
:1038D0000B441B8899B240F60F730B4099B2584BBA
:1038E0000B439BB213807A683B681B789B001344A0
:1038F0001B889BB223F4E04323F040039CB284F086
:1039000020039CB27A683B681B789B001A444B4B9F
:1039100023439BB21380DAE17B68B3F850309BB24B
:103920001A463B681B78DB00134404335B001A46DD
:103930007B68134403F580633A689288520892B218
:1039400052001A607B68B3F850309BB21A463B684D
:103950001B78DB00134406335B001A467B68134474
:1039600003F58063BB603B681B693E2B18D93B683D
:103970001B695B09FB813B681B6903F01F03002B7C
:1039800002D1FB89013BFB81FB899B029BB26FEA61
:1039900043436FEA53439BB21A46BB681A6012E076
:1039A0003B681B695B08FB813B681B6903F00103F3
:1039B000002B02D0FB890133FB81FB899B029BB268
:1039C0001A46BB681A607A683B681B789B001344F0
:1039D0001B889BB203F48043002B13D07A683B68AA
:1039E0001B789B001A4479683B681B789B000B444A
:1039F0001B8899B240F60F730B4099B2114B0B43E1
:103A00009BB213807A683B681B789B0013441B8829
:103A10009BB223F4804323F070039CB284F4805360
:103A20009CB284F400539CB27A683B681B789B007C
:103A30001A44024B23439BB2138048E18080FFFF6E
:103A4000C080FFFF80C0FFFF7A683B681B789B0047
:103A50001A4479683B681B789B000B441B8899B219
:103A600040F60F630B4099B29C4B0B439BB2138003
:103A70007B68B3F850309BB21A463B681B78DB007A
:103A800013445B001A467B68134403F580633A686D
:103A9000D288520892B252001A607B68B3F8503054
:103AA0009BB21A463B681B78DB00134404335B006F
:103AB0001A467B68134403F580633A6812895208FA
:103AC00092B252001A603B685B78002B40F0838012
:103AD0007A683B681B789B0013441B889BB203F4F5
:103AE0008043002B13D07A683B681B789B001A44F4
:103AF00079683B681B789B000B441B8899B240F6A1
:103B00000F730B4099B2764B0B439BB213807A68CC
:103B10003B681B789B0013441B889BB203F0400357
:103B2000002B13D07A683B681B789B001A44796895
:103B30003B681B789B000B441B8899B240F60F73BF
:103B40000B4099B2674B0B439BB213807A683B687A
:103B50001B789B001A4479683B681B789B000B44D8
:103B60001B8899B240F60F730B4099B25D4B0B4323
:103B70009BB213807A683B681B789B0013441B88B8
:103B80009BB223F4804323F070039CB284F48053EF
:103B90009CB284F400539CB27A683B681B789B000B
:103BA0001A44514B23439BB213807A683B681B78BD
:103BB0009B0013441B889BB223F4E04323F0400393
:103BC0009CB27A683B681B789B001A44464B23439F
:103BD0009BB213807BE07A683B681B789B001344A0
:103BE0001B889BB203F48043002B13D07A683B6898
:103BF0001B789B001A4479683B681B789B000B4438
:103C00001B8899B240F60F730B4099B2344B0B43AB
:103C10009BB213807A683B681B789B0013441B8817
:103C20009BB203F04003002B13D07A683B681B78EB
:103C30009B001A4479683B681B789B000B441B88E7
:103C400099B240F60F730B4099B2264B0B439BB2CF
:103C500013807A683B681B789B001A4479683B683C
:103C60001B789B000B441B8899B240F60F730B40E6
:103C700099B21B4B0B439BB213807A683B681B784D
:103C80009B0013441B889BB223F4E04323F04003C2
:103C90009CB27A683B681B789B001A44124B234302
:103CA0009BB213807A683B681B789B0013441B8887
:103CB0009BB223F4804323F070039CB27A683B6884
:103CC0001B789B001A44084B23439BB213800023AC
:103CD00018461037BD4690BC704700BF8081FFFF7B
:103CE00080C0FFFFC080FFFF8080FFFF90B482B0E4
:103CF00000AF786039603B689B7A002B6DD13B68E0
:103D00005B78002B34D07A683B681B789B001344A7
:103D10001B889BB203F04003002B13D07A683B68EA
:103D20001B789B001A4479683B681B789B000B4406
:103D30001B8899B240F60F730B4099B2684B0B4346
:103D40009BB213807A683B681B789B0013441B88E6
:103D50009BB223F4E04323F040039CB27A683B68B3
:103D60001B789B001A445F4B23439BB2138039E1BD
:103D70007A683B681B789B0013441B889BB203F452
:103D80008043002B13D07A683B681B789B001A4451
:103D900079683B681B789B000B441B8899B240F6FE
:103DA0000F730B4099B2504B0B439BB213807A6850
:103DB0003B681B789B0013441B889BB223F4804311
:103DC00023F070039CB27A683B681B789B001A440E
:103DD000444B23439BB2138004E13B685B78002B88
:103DE00040F084807A683B681B789B0013441B88F2
:103DF0009BB203F48043002B13D07A683B681B7896
:103E00009B001A4479683B681B789B000B441B8815
:103E100099B240F60F730B4099B2334B0B439BB2F0
:103E200013807A683B681B789B0013441B889BB205
:103E300003F04003002B13D07A683B681B789B008B
:103E40001A4479683B681B789B000B441B8899B225
:103E500040F60F730B4099B2214B0B439BB213807A
:103E60007A683B681B789B001A4479683B681B782A
:103E70009B000B441B8899B240F60F730B4099B21C
:103E8000174B0B439BB213807A683B681B789B00EF
:103E900013441B889BB223F4804323F070039CB22D
:103EA0007A683B681B789B001A440E4B23439BB2F5
:103EB00013807A683B681B789B0013441B889BB275
:103EC00023F4E04323F040039CB27A683B681B78FC
:103ED0009B001A44034B23439BB2138082E000BF34
:103EE000C080FFFF8080FFFF80C0FFFF7A683B68D3
:103EF0001B789B0013441B889BB203F48043002B68
:103F000013D07A683B681B789B001A4479683B6839
:103F10001B789B000B441B8899B240F60F730B4033
:103F200099B2334B0B439BB213807A683B681B7882
:103F30009B0013441B889BB203F04003002B13D05B
:103F40007A683B681B789B001A4479683B681B7849
:103F50009B000B441B8899B240F60F730B4099B23B
:103F6000244B0B439BB213807A683B681B789B0001
:103F70001A4479683B681B789B000B441B8899B2F4
:103F800040F60F730B4099B2194B0B439BB2138051
:103F90007A683B681B789B0013441B889BB223F410
:103FA000E04323F040039CB27A683B681B789B0097
:103FB0001A44114B23439BB213807A683B681B78E9
:103FC0009B0013441B889BB223F4804323F07003AF
:103FD0009CB27A683B681B789B001A44064B2343CB
:103FE0009BB21380002318460837BD4690BC70472B
:103FF00080C0FFFFC080FFFF8080FFFF90B58DB0C5
:1040000000AF786039600023FB853B689B69BB6229
:104010003B685B78012B40F04B813B689A693B68B9
:104020001B699A4209D93B681B69BB623B689A6964
:10403000BB6AD21A3B689A6105E03B689B69BB6228
:104040003B6800229A613B689B7A002B1BD13B683E
:1040500059693B689A88BB6A9BB2786800F08AFB12
:104060007B68B3F850309BB21A463B681B78DB0084
:10407000134402335B001A467B68134403F58063E4
:10408000BA6A1A60F8E07A683B681B789B001344B0
:104090001B889BB203F04003002B5AD03B685B782F
:1040A000002B3CD17B68B3F850309BB21A463B687A
:1040B0001B78DB00134406335B001A467B6813440D
:1040C00003F58063BB61BB6A3E2B16D9BB6A5B09F3
:1040D000FB84BB6A03F01F03002B02D1FB8C013B66
:1040E000FB84FB8C9B029BB26FEA43436FEA534312
:1040F0009BB21A46BB691A6027E0BB6A5B08FB8467
:10410000BB6A03F00103002B02D0FB8C0133FB845C
:10411000FB8C9B029BB21A46BB691A6015E03B6898
:104120005B78012B11D17B68B3F850309BB21A46F3
:104130003B681B78DB00134402335B001A467B6844
:10414000134403F58063BA6A1A603B681B89FB85D8
:1041500059E03B685B78002B3CD17B68B3F850306A
:104160009BB21A463B681B78DB00134402335B00AA
:104170001A467B68134403F580637B61BB6A3E2B60
:1041800016D9BB6A5B09BB84BB6A03F01F03002B13
:1041900002D1BB8C013BBB84BB8C9B029BB26FEA00
:1041A00043436FEA53439BB21A467B691A6027E088
:1041B000BB6A5B08BB84BB6A03F00103002B02D01F
:1041C000BB8C0133BB84BB8C9B029BB21A467B69C0
:1041D0001A6015E03B685B78012B11D17B68B3F85E
:1041E00050309BB21A463B681B78DB001344023305
:1041F0005B001A467B68134403F58063BA6A1A6051
:104200003B68DB88FB853B685969BB6A9BB2FA8DCA
:10421000786800F0AFFA3B685B78002B14D17A68BD
:104220003B681B789B001A4479683B681B789B00AD
:104230000B441B8899B240F60F730B4099B2944B14
:104240000B439BB2138017E03B685B78012B13D1C3
:104250007A683B681B789B001A4479683B681B7836
:104260009B000B441B8899B240F60F730B4099B228
:10427000884B0B439BB213807A683B681B789B008A
:1042800013441B889BB223F4E04323F040039CB209
:1042900084F010039CB284F020039CB27A683B68DF
:1042A0001B789B001A447C4B23439BB2138026E16E
:1042B0003B689A693B681B699A4209D93B681B694C
:1042C000BB623B689A69BB6AD21A3B689A6105E097
:1042D0003B689B69BB623B6800229A613B689B7AA2
:1042E000002B3CD17B68B3F850309BB21A463B6838
:1042F0001B78DB00134406335B001A467B681344CB
:1043000003F580633B61BB6A3E2B16D9BB6A5B0930
:104310007B84BB6A03F01F03002B02D17B8C013B23
:104320007B847B8C9B029BB26FEA43436FEA5343CF
:104330009BB21A463B691A60C6E0BB6A5B087B8485
:10434000BB6A03F00103002B02D07B8C01337B841A
:104350007B8C9B029BB21A463B691A60B4E03B68B7
:104360005B78002B3CD17B68B3F850309BB21A4687
:104370003B681B78DB00134402335B001A467B6802
:10438000134403F58063FB60BB6A3E2B16D9BB6AFE
:104390005B093B84BB6A03F01F03002B02D13B8CFB
:1043A000013B3B843B8C9B029BB26FEA43436FEA29
:1043B00053439BB21A46FB681A6027E0BB6A5B084E
:1043C0003B84BB6A03F00103002B02D03B8C01331A
:1043D0003B843B8C9B029BB21A46FB681A6015E03B
:1043E0003B685B78012B11D17B68B3F850309BB2EE
:1043F0001A463B681B78DB00134402335B001A4605
:104400007B68134403F58063BA6A1A603B685B7883
:10441000002B43D17B68B3F850309BB21A463B68FF
:104420001B78DB00134406335B001A467B68134499
:1044300003F58063BB60BB6A3E2B16D9BB6A5B0980
:10444000FB83BB6A03F01F03002B02D1FB8B013BF4
:10445000FB83FB8B9B029BB26FEA43436FEA5343A0
:104460009BB21A46BB681A602EE0BB6A5B08FB83EE
:10447000BB6A03F00103002B02D0FB8B0133FB83EB
:10448000FB8B9B029BB21A46BB681A601CE000BF04
:10449000C080FFFF80C0FFFF8080FFFF3B685B782C
:1044A000012B11D17B68B3F850309BB21A463B68A0
:1044B0001B78DB00134402335B001A467B6813440D
:1044C00003F58063BA6A1A607A683B681B789B00C0
:1044D00013441B889BB223F4804323F070039CB2E7
:1044E00084F480539CB284F400539CB27A683B6895
:1044F0001B789B001A44044B23439BB21380002378
:1045000018463437BD4690BD8080FFFF90B482B01E
:1045100000AF786039603B681B78002B18D17A684F
:104520003B681B789B0013441B889BB24BF6BF74FF
:104530001C4084F4805484F010047A683B681B7833
:104540009B001A44A1B2204B0B439BB2138034E072
:104550003B685B78002B18D07A683B681B789B001F
:1045600013441B889BB223F4E04323F040039CB226
:1045700084F010039CB27A683B681B789B001A4455
:10458000114B23439BB2138017E07A683B681B787A
:104590009B0013441B889BB223F4804323F07003D9
:1045A0009CB284F480539CB27A683B681B789B0071
:1045B0001A44054B23439BB2138000231846083747
:1045C000BD4690BC704700BF8080FFFF90B482B0B2
:1045D00000AF786039603B685B78002B3AD07A682E
:1045E0003B681B789B0013441B889BB203F040037D
:1045F000002B13D07A683B681B789B001A447968BB
:104600003B681B789B000B441B8899B240F60F73E4
:104610000B4099B22F4B0B439BB213807A683B68D7
:104620001B789B0013441B889BB223F4E04323F0C8
:1046300040039CB284F010039CB284F020039CB22F
:104640007A683B681B789B001A44234B23439BB238
:10465000138039E07A683B681B789B0013441B8801
:104660009BB203F48043002B13D07A683B681B781D
:104670009B001A4479683B681B789B000B441B889D
:1046800099B240F60F730B4099B2144B0B439BB297
:1046900013807A683B681B789B0013441B889BB28D
:1046A00023F4804323F070039CB284F480539CB2C3
:1046B00084F400539CB27A683B681B789B001A44D0
:1046C000054B23439BB21380002318460837BD4691
:1046D00090BC7047C080FFFF8080FFFF80C0FFFF5D
:1046E00080B483B000AF78600B46FB70FB78002B82
:1046F00003D17B688022A3F84C20002318460C3796
:10470000BD465DF8047B704780B483B000AF78602D
:10471000002318460C37BD465DF8047B704700BF88
:1047200080B483B000AF7860002318460C37BD46D4
:104730005DF8047B704700BF80B485B000AF78603F
:104740000023FB607B68B3F844309BB2FB60FB68DE
:1047500018461437BD465DF8047B704780B483B0BB
:1047600000AF78603960002318460C37BD465DF80D
:10477000047B704780B48BB000AFF860B960FA80FA
:10478000BB80BB8801335B10FB6100237B6200238D
:10479000BB6100237B6100233B62FB885B001A4600
:1047A000FB68134403F580633B62FB697B621BE09B
:1047B000BB681B78BB61BB680133BB60BB681B78FF
:1047C0001B021A46BB6913437B613B6A9A1C3A621F
:1047D0007A6992B21A803B6A02333B62BB6801334A
:1047E000BB607B6A013B7B627B6A002BE0D12C378C
:1047F000BD465DF8047B704780B489B000AFF860B7
:10480000B960FA80BB80BB8801335B107B610023F9
:10481000FB610023BB61FB885B001A46FB68134405
:1048200003F58063BB617B69FB610EE0BB685A1CCA
:10483000BA60BA69111DB961126892B21A80BB6878
:104840000133BB60FB69013BFB61FB69002BEDD1D0
:104850002437BD465DF8047B704700BF80B48BB041
:1048600000AF786039600023FB610023BB61002347
:104870007B6100233B6200233B6100237B6228E1D4
:104880007B6A012202FA03F3FB613B681A68FB6949
:104890001340BB61BA69FB699A4240F017813B68DB
:1048A0005B68122B34D0122B0DD8022B2BD0022B8D
:1048B00004D8002B31D0012B1CD049E0032B44D06D
:1048C000112B1BD044E0874A934226D0854A93425D
:1048D00006D8854A934220D0844A93421DD037E0BF
:1048E000834A934219D0834A934216D0824A934214
:1048F00013D02DE03B68DB683B6229E03B68DB6856
:1049000004333B6224E03B68DB6808333B621FE012
:104910003B68DB680C333B621AE03B689B68002B0A
:1049200002D104233B620FE03B689B68012B05D159
:1049300008233B627B68FA691A6105E008233B6241
:104940007B68FA695A6103E002E000233B6200BF22
:10495000BB69FF2B01D87B6801E07B680433FB60F7
:10496000BB69FF2B02D87B6A9B0002E07B6A083B95
:104970009B003B61FB681A683B690F2101FA03F356
:10498000DB431A403B69396A01FA03F31A43FB68B7
:104990001A603B685B6803F08053002B00F0968040
:1049A000564B564A926942F001029A61534B9B69F9
:1049B00003F00103BB60BB68514B7A6A9208023274
:1049C00053F822307B617B6A03F003039B000F22C4
:1049D00002FA03F3DB437A6913407B617A68494B3F
:1049E0009A4213D07A68484B9A420DD07A68474B66
:1049F0009A4207D07A68464B9A4201D1032306E0D7
:104A0000042304E0022302E0012300E000237A6A89
:104A100002F00302920093407A6913437B61384BA2
:104A20007A6A92080232796943F822103B685B681F
:104A300003F48033002B06D0364B364A1168BA692E
:104A40000A431A6006E0334B324A1168BA69D2430E
:104A50000A401A603B685B6803F40033002B06D001
:104A60002C4B2C4A5168BA690A435A6006E0294B1C
:104A7000284A5168BA69D2430A405A603B685B6869
:104A800003F48013002B06D0224B224A9168BA69A6
:104A90000A439A6006E01F4B1E4A9168BA69D243E6
:104AA0000A409A603B685B6803F40013002B06D051
:104AB000184B184AD168BA690A43DA6006E0154B08
:104AC000144AD168BA69D2430A40DA607B6A01337A
:104AD0007B627B6A0F2B7FF6D3AE2C37BD465DF829
:104AE000047B70470000211000001110000012101C
:104AF00000003110000032100000221000100240AF
:104B00000000014000080140000C0140001001407D
:104B1000001401400004014080B483B000AF03469C
:104B20003960FB713B6812221A80034B18460C3720
:104B3000BD465DF8047B7047D400002080B483B08C
:104B400000AF03463960FB713B6804221A80034BB7
:104B500018460C37BD465DF8047B7047E80000201E
:104B600080B582B000AF03463960FB71FB79002B42
:104B700005D1084808493A6801F09AFD04E0054863
:104B800005493A6801F094FD034B18460837BD46C5
:104B900080BD00BFC06A0008B805002080B582B0A3
:104BA00000AF03463960FB71044805493A6801F0DB
:104BB0007FFD034B18460837BD4680BDD86A000804
:104BC000B805002080B582B000AF03463960FB71A4
:104BD000FB79002B05D1084808493A6801F068FDC7
:104BE00004E0054805493A6801F062FD034B1846A8
:104BF0000837BD4680BD00BFEC6A0008B80500203C
:104C000080B582B000AF03463960FB71FB79002BA1
:104C100005D1084808493A6801F04AFD04E0054812
:104C200005493A6801F044FD034B18460837BD4674
:104C300080BD00BFFC6A0008B805002080B582B0C6
:104C400000AF03463960FB71FB79002B05D10848A2
:104C500008493A6801F02CFD04E0054805493A6826
:104C600001F026FD034B18460837BD4680BD00BF46
:104C7000086B0008B805002080B584B000AF7860EC
:104C80007B681A680C4B9A4213D10C4B0B4AD269C1
:104C900042F40002DA61094BDB6903F40003FB60B4
:104CA000FB68142000210022FBF794FC1420FBF782
:104CB000ADFC1037BD4680BD005C004000100240D6
:104CC00080B582B000AF78607B68D3F81C247B6825
:104CD00003F57B7310461946FEF7ACF90837BD465D
:104CE00080BD00BF80B582B000AF78600B46FB701E
:104CF0007B68D3F81C14FB787A685B01134403F5D6
:104D000006735B68FA78084611461A46FEF7DCF926
:104D10000837BD4680BD00BF80B582B000AF786067
:104D20000B46FB707B68D3F81C14FB787A685B0138
:104D3000134438335B68FA78084611461A46FEF782
:104D40001FFA0837BD4680BD80B582B000AF7860DD
:104D50007B68D3F81C341846FEF70AFB0837BD46BB
:104D600080BD00BF80B584B000AF78600123FB73C5
:104D70007B689B68022B02D10123FB7302E00123B5
:104D8000FB7300BF7B68D3F81C24FB7B10461946DD
:104D9000FEF7B6FA7B68D3F81C341846FEF780FAA3
:104DA0001037BD4680BD00BF80B582B000AF7860CF
:104DB0007B68D3F81C341846FEF7B2FA7B689B690F
:104DC000002B05D0044B044A126942F006021A6116
:104DD0000837BD4680BD00BF00ED00E080B582B061
:104DE00000AF78607B68D3F81C341846FEF7AEFA43
:104DF0000837BD4680BD00BF80B582B000AF786087
:104E0000204B7A68C3F81C247B681E4AC3F8202212
:104E10001C4B1D4A1A601B4B08225A60194B022278
:104E20009A60184B0322DA60164B00229A61154BE8
:104E30000022DA61134B00221A621248FDF756F97C
:104E40007B68D3F82032184600210022182301F095
:104E500085FC7B68D3F82032184680210022582335
:104E600001F07CFC7B68D3F82032184681210022B7
:104E70004FF4807301F072FC002318460837BD46DA
:104E800080BD00BFB8070020005C004080B582B044
:104E900000AF78607B68D3F820321846FDF7FCF944
:104EA000002318460837BD4680BD00BF80B582B0DC
:104EB00000AF7860F970BA703B807B68D3F820024D
:104EC000F9783A88BB78FDF72BFB002318460837A2
:104ED000BD4680BD80B582B000AF78600B46FB70E8
:104EE0007B68D3F82022FB7810461946FDF766FB55
:104EF000002318460837BD4680BD00BF80B582B08C
:104F000000AF78600B46FB707B68D3F82022FB78FB
:104F100010461946FDF72CFC002318460837BD46FD
:104F200080BD00BF80B582B000AF78600B46FB70DB
:104F30007B68D3F82022FB7810461946FDF76CFCFD
:104F4000002318460837BD4680BD00BF80B485B039
:104F500000AF78600B46FB707B68D3F82032FB60B3
:104F6000FB785BB2002B08DAFB7803F07F03FA686A
:104F70005B01134428339B7808E0FB7803F07F0340
:104F8000FA685B01134403F502739B7818461437E3
:104F9000BD465DF8047B704780B582B000AF786095
:104FA0000B46FB707B68D3F82022FB78104619462D
:104FB000FDF790FA002318460837BD4680BD00BFB4
:104FC00080B584B000AFF8607A600A46FA723B811F
:104FD000FB68D3F820123B89FA7A084611467A68B2
:104FE000FDF77CFB002318461037BD4680BD00BF8F
:104FF00080B584B000AFF8607A600A46FA723B81EF
:10500000FB68D3F820123B89FA7A084611467A6881
:10501000FDF718FB002318461037BD4680BD00BFC2
:1050200080B483B000AF7860034B18460C37BD46A0
:105030005DF8047B704700BF6405002080B483B036
:1050400000AF78600C37BD465DF8047B704700BF49
:1050500080B483B000AF78600B46FB700C37BD4660
:105060005DF8047B704700BF80B582B000AF0C4B89
:105070000B4A926942F001029A61094B9B6903F065
:1050800001037B607B680320FBF79AFA4FF0FF3047
:1050900000210022FBF79EFA0837BD4680BD00BF05
:1050A0000010024080B588B000AF78607B681A6855
:1050B000134B9A4220D1134B124A926942F4006278
:1050C0009A61104B9B6903F40063FB60FB684FF42B
:1050D00080733B6100237B610023BB6107F11003F8
:1050E00009481946FFF7BAFB1B2000210022FBF7F5
:1050F00071FA1B20FBF78AFA2037BD4680BD00BF3E
:10510000002C0140001002400008014080B582B030
:1051100000AF78607B68002B01D101231DE07B6824
:1051200093F83930DBB2002B06D17B68002283F87C
:1051300038207868FFF7B6FF7B68022283F83920B1
:105140007B681A687B6804331046194600F0D6FB6A
:105150007B68012283F83920002318460837BD46B2
:1051600080BD00BF80B582B000AF78607B68002B47
:1051700001D101231DE07B6893F83930DBB2002BAD
:1051800006D17B68002283F83820786800F016F892
:105190007B68022283F839207B681A687B680433B5
:1051A0001046194600F0AAFB7B68012283F83920DB
:1051B000002318460837BD4680BD00BF80B483B0C9
:1051C00000AF78600C37BD465DF8047B704700BFC8
:1051D00080B582B000AF786039603B680C2B41D855
:1051E00001A252F823F000BF1D52000865520008CA
:1051F00065520008655200082F52000865520008E9
:1052000065520008655200084152000865520008C6
:105210006552000865520008535200087B681B68FD
:105220007A681268D26842F00202DA601BE07B689A
:105230001B687A681268D26842F00402DA6012E0F1
:105240007B681B687A681268D26842F00802DA60EC
:1052500009E07B681B687A681268D26842F0100225
:10526000DA6000E000BF7B681B68184639680122DD
:1052700000F0F4FD7B681B687A681268126842F0DF
:1052800001021A60002318460837BD4680BD00BFE2
:1052900080B582B000AF78607B681B681B6903F043
:1052A0000203002B22D07B681B68DB6803F002033B
:1052B000002B1BD07B681B686FF002021A617B68B1
:1052C00001221A767B681B689B6903F00303002B9D
:1052D00003D07868FEF766F805E0786800F0F0FA29
:1052E000786800F0F7FA7B6800221A767B681B6802
:1052F0001B6903F00403002B22D07B681B68DB686A
:1053000003F00403002B1BD07B681B686FF00402C2
:105310001A617B6802221A767B681B689B6903F41A
:105320004073002B03D07868FEF73CF805E07868FE
:1053300000F0C6FA786800F0CDFA7B6800221A7691
:105340007B681B681B6903F00803002B22D07B6875
:105350001B68DB6803F00803002B1BD07B681B680D
:105360006FF008021A617B6804221A767B681B685A
:10537000DB6903F00303002B03D07868FEF712F813
:1053800005E0786800F09CFA786800F0A3FA7B6882
:1053900000221A767B681B681B6903F01003002B40
:1053A00022D07B681B68DB6803F01003002B1BD046
:1053B0007B681B686FF010021A617B6808221A76FE
:1053C0007B681B68DB6903F44073002B03D07868AB
:1053D000FDF7E8FF05E0786800F072FA786800F001
:1053E00079FA7B6800221A767B681B681B6903F0D8
:1053F0000103002B0ED07B681B68DB6803F0010300
:10540000002B07D07B681B686FF001021A61786877
:1054100000F04CFA7B681B681B6903F08003002BCB
:105420000ED07B681B68DB6803F08003002B07D07D
:105430007B681B686FF080021A61786801F09CFA43
:105440007B681B681B6903F04003002B0ED07B6850
:105450001B68DB6803F04003002B07D07B681B68E8
:105460006FF040021A61786800F03EFA7B681B68B2
:105470001B6903F02003002B0ED07B681B68DB68E0
:1054800003F02003002B07D07B681B686FF020021D
:105490001A61786801F066FA0837BD4680BD00BF22
:1054A00080B584B000AFF860B9607A60FB6893F8AB
:1054B0003830012B01D102238AE0FB68012283F8F6
:1054C0003820FB68022283F839207B68002B1BD12F
:1054D000FB681868BB681968BB685A68BB68DB68FA
:1054E00000F0F8FAFB681B68FA681268926922F00B
:1054F0000C029A61FB681B68FA6812689169BA68C5
:1055000092680A439A615AE07B68042B1CD1FB68BD
:105510001868BB681968BB685A68BB68DB6800F02C
:1055200069FBFB681B68FA681268926922F44062A2
:105530009A61FB681B68FA6812689169BA68926898
:1055400012020A439A613AE07B68082B1BD1FB6880
:105550001868BB681968BB685A68BB68DB6800F0EC
:10556000BDFBFB681B68FA681268D26922F00C0266
:10557000DA61FB681B68FA681268D169BA689268D8
:105580000A43DA611BE0FB681868BB681968BB68EE
:105590005A68BB68DB6800F0E1FBFB681B68FA68CF
:1055A0001268D26922F44062DA61FB681B68FA680B
:1055B0001268D169BA68926812020A43DA61FB681C
:1055C000012283F83920FB68002283F83820002369
:1055D00018461037BD4680BD80B584B000AF7860F6
:1055E00039600023FB607B6893F83830012B01D1D0
:1055F0000223CFE07B68012283F838207B680222F7
:1056000083F839207B681B689B68FB60FB6823F08C
:105610007703FB60FB6823F47F43FB607B681B68B8
:10562000FA689A603B681B68402B7CD0402B0FD8EF
:10563000102B00F09180102B03D8002B00F08580F8
:105640009FE0202B00F08F80302B00F0938098E0BB
:10565000702B16D0702B04D8502B40D0602B50D01C
:105660008FE0B3F5805F03D0B3F5005F24D088E00E
:105670007B681B687A681268926822F007029A6059
:105680007FE07B6818683B6899683B685A683B68AC
:10569000DB6800F0C1FB7B681B689B68FB60FB68F4
:1056A00023F07703FB60FB6843F07703FB607B68C4
:1056B0001B68FA689A6064E07B6818683B689968C0
:1056C0003B685A683B68DB6800F0A6FB7B681B6898
:1056D0007A681268926842F480429A6051E07B686E
:1056E00019683B685A683B68DB68084611461A46E9
:1056F00000F04EFA7B681B681846502100F06EFBE4
:105700003FE07B6819683B685A683B68DB6808467D
:1057100011461A4600F0AEFA7B681B6818466021F5
:1057200000F05CFB2DE07B6819683B685A683B68B9
:10573000DB68084611461A4600F02AFA7B681B68A7
:105740001846402100F04AFB1BE07B681B681846A6
:10575000002100F043FB14E07B681B681846102111
:1057600000F03CFB0DE07B681B681846202100F030
:1057700035FB06E07B681B681846302100F02EFBE5
:1057800000BF7B68012283F839207B68002283F800
:105790003820002318461037BD4680BD80B582B042
:1057A00000AF786039607B6893F83830012B01D105
:1057B000022324E07B68012283F838207B680222E0
:1057C00083F839207868396800F0F6F87B681B6840
:1057D0007A681268D26822F04002DA607B681B683F
:1057E0007A681268D26822F48042DA607B6801220B
:1057F00083F839207B68002283F83820002318467C
:105800000837BD4680BD00BF80B485B000AF78606A
:1058100039600023FB607B6893F83830012B01D19D
:1058200002233DE07B68012283F838203B680C2B83
:1058300030D801A252F823F06D580008955800089E
:1058400095580008955800087758000895580008A2
:105850009558000895580008815800089558000888
:1058600095580008955800088B5800087B681B68FD
:105870005B6BFB600FE07B681B689B6BFB600AE067
:105880007B681B68DB6BFB6005E07B681B681B6C3F
:10589000FB6000E000BF7B68002283F83820FB68D3
:1058A00018461437BD465DF8047B704780B483B05A
:1058B00000AF78600C37BD465DF8047B704700BFD1
:1058C00080B483B000AF78600C37BD465DF8047BD0
:1058D000704700BF80B483B000AF78600C37BD461E
:1058E0005DF8047B704700BF80B483B000AF786080
:1058F0000C37BD465DF8047B704700BF80B485B0AF
:1059000000AF786039600023FB607B681B68FB6038
:105910007A68264B9A420BD07B68B3F1804F07D050
:105920007A68234B9A4203D07A68224B9A4208D174
:10593000FB6823F07003FB603B685B68FA68134305
:10594000FB607A68194B9A420BD07B68B3F1804FA9
:1059500007D07A68164B9A4203D07A68154B9A4260
:1059600008D1FB6823F44073FB603B68DB68FA688E
:105970001343FB607B68FA681A603B689A687B682F
:10598000DA623B681A687B689A627A68074B9A42C7
:1059900003D13B681A697B681A637B6801225A61EC
:1059A0001437BD465DF8047B704700BF002C0140F2
:1059B000000400400008004080B586B000AF786069
:1059C000396000237B6100233B610023FB607B681F
:1059D0001B689B687B617B6923F070037B613B687C
:1059E0005B687A6913437B617B6923F007037B6102
:1059F0003B681B687A6913437B617B681B687A6923
:105A00009A603B685B68302B5AD0302B06D8102B3D
:105A100058D0202B58D0002B58D058E0502B37D0DE
:105A2000502B02D8402B10D051E0602B3CD0702B73
:105A300000D04CE07B6818683B68D9683B689A687E
:105A40003B681B6900F0E8F941E07B681B681B6A52
:105A5000FB607B681B687A681268126A22F0010298
:105A60001A627B681B689B693B613B6923F0F0030A
:105A70003B613B681B691B013A6913433B617B68CF
:105A80001B683A699A617B681B68FA681A621EE0B3
:105A90007B6819683B689A683B681B690846114631
:105AA0001A4600F075F812E07B6819683B689A683E
:105AB0003B681B69084611461A4600F0DBF806E011
:105AC00000BF04E000BF02E000BF00E000BF1837E5
:105AD000BD4680BD80B487B000AFF860B9607A6021
